{
  "transactions": [
    {
      "hash": "0xd816db82bd62be7cf50593b1a7881254aab7d16ca89f2c68d77b5e1963d2915a",
      "transactionType": "CALL",
      "contractName": null,
      "contractAddress": "0x2d4d9d04323832bcc7406fcd569876dd6a66e25d",
      "function": "mintNft(string)",
      "arguments": [
        "ipfs://QmUnFyt31b4jdXF5pLQJ3H8753T6tgJ9cpheW7jsnVdVjG/?filename=LD.json"
      ],
      "transaction": {
        "from": "0x1b06535f608b58b863843e09fba62b8929513895",
        "to": "0x2d4d9d04323832bcc7406fcd569876dd6a66e25d",
        "gas": "0x3d504",
        "value": "0x0",
        "input": "0xda86f4a900000000000000000000000000000000000000000000000000000000000000200000000000000000000000000000000000000000000000000000000000000047697066733a2f2f516d556e467974333162346a64584635704c514a334838373533543674674a396370686557376a736e5664566a472f3f66696c656e616d653d4c442e6a736f6e00000000000000000000000000000000000000000000000000",
        "nonce": "0x1",
        "chainId": "0xaa36a7"
      },
      "additionalContracts": [],
      "isFixedGasLimit": false
    }
  ],
  "receipts": [
    {
      "status": "0x1",
      "cumulativeGasUsed": "0x183db12",
      "logs": [
        {
          "address": "0x2d4d9d04323832bcc7406fcd569876dd6a66e25d",
          "topics": [
            "0xddf252ad1be2c89b69c2b068fc378daa952ba7f163c4a11628f55a4df523b3ef",
            "0x0000000000000000000000000000000000000000000000000000000000000000",
            "0x0000000000000000000000001b06535f608b58b863843e09fba62b8929513895",
            "0x0000000000000000000000000000000000000000000000000000000000000000"
          ],
          "data": "0x",
          "blockHash": "0x983310a348059b0da495c477665d877151b0a472c01d02241fbc18828edec769",
          "blockNumber": "0x671e5a",
          "transactionHash": "0xd816db82bd62be7cf50593b1a7881254aab7d16ca89f2c68d77b5e1963d2915a",
          "transactionIndex": "0x5b",
          "logIndex": "0x8f",
          "removed": false
        }
      ],
      "logsBloom": "0x00000000000000000000000000000000000000000000000000000000000000000000000000000000000000000000000000000000000000000000000000000000000200000000000000000008000000000000000000000000000000000000000400000000020000000100000000000800000000000000000000000010000000000000000000000000000000000000000000000000000000000000000000002000000000000000000000000000000000000000000000000000000000000000000000000002800000000000000000000000000000000000000000000000000020000000000000000000000000000000000000000000040000000000000000000000",
      "type": "0x2",
      "transactionHash": "0xd816db82bd62be7cf50593b1a7881254aab7d16ca89f2c68d77b5e1963d2915a",
      "transactionIndex": "0x5b",
      "blockHash": "0x983310a348059b0da495c477665d877151b0a472c01d02241fbc18828edec769",
      "blockNumber": "0x671e5a",
      "gasUsed": "0x2c63e",
      "effectiveGasPrice": "0x1feb2db8e5",
      "from": "0x1b06535f608b58b863843e09fba62b8929513895",
      "to": "0x2d4d9d04323832bcc7406fcd569876dd6a66e25d",
      "contractAddress": null
    }
  ],
  "libraries": [],
  "pending": [],
  "returns": {},
  "timestamp": 1727280879,
  "chain": 11155111,
  "commit": "4fe5346"
}