{
  "transactions": [
    {
      "hash": "0x7b44249dbb1467ad19432c2292278f12500f3e67ba1562c10fb0d0a976f4fb11",
      "transactionType": "CALL",
      "contractName": null,
      "contractAddress": "0x59e8edee31e8399c491dfafb04aa8dcae8b8d122",
      "function": "mintNft(string)",
      "arguments": [
        "ipfs://QmUnFyt31b4jdXF5pLQJ3H8753T6tgJ9cpheW7jsnVdVjG/?filename=LD.json"
      ],
      "transaction": {
        "from": "0x1b06535f608b58b863843e09fba62b8929513895",
        "to": "0x59e8edee31e8399c491dfafb04aa8dcae8b8d122",
        "gas": "0x3d504",
        "value": "0x0",
        "input": "0xda86f4a900000000000000000000000000000000000000000000000000000000000000200000000000000000000000000000000000000000000000000000000000000047697066733a2f2f516d556e467974333162346a64584635704c514a334838373533543674674a396370686557376a736e5664566a472f3f66696c656e616d653d4c442e6a736f6e00000000000000000000000000000000000000000000000000",
        "nonce": "0x3",
        "chainId": "0xaa36a7"
      },
      "additionalContracts": [],
      "isFixedGasLimit": false
    }
  ],
  "receipts": [
    {
      "status": "0x1",
      "cumulativeGasUsed": "0x1712bd3",
      "logs": [
        {
          "address": "0x59e8edee31e8399c491dfafb04aa8dcae8b8d122",
          "topics": [
            "0xddf252ad1be2c89b69c2b068fc378daa952ba7f163c4a11628f55a4df523b3ef",
            "0x0000000000000000000000000000000000000000000000000000000000000000",
            "0x0000000000000000000000001b06535f608b58b863843e09fba62b8929513895",
            "0x0000000000000000000000000000000000000000000000000000000000000000"
          ],
          "data": "0x",
          "blockHash": "0xc993120285b191773cd5bc042737192344204d4e03ec212016ae7e2a77a56217",
          "blockNumber": "0x6720f1",
          "transactionHash": "0x7b44249dbb1467ad19432c2292278f12500f3e67ba1562c10fb0d0a976f4fb11",
          "transactionIndex": "0x62",
          "logIndex": "0x101",
          "removed": false
        }
      ],
      "logsBloom": "0x00000000000000000000000000000000000000000000000000000000000400000000000000000000000000000000000000000000000000000000000000000000000000000000000000000008000000000000000000000000000000000000000400000000020000000000000000000800000000000000000000000010000000000000000000000000000000000000000000000000000000000000000000002000000000000000048000000000000000000000000000000000000000000000000000000002800000000000000000000000000000000000000000000000000020000000000000000000000000000000000000000000000000000000000000000000",
      "type": "0x2",
      "transactionHash": "0x7b44249dbb1467ad19432c2292278f12500f3e67ba1562c10fb0d0a976f4fb11",
      "transactionIndex": "0x62",
      "blockHash": "0xc993120285b191773cd5bc042737192344204d4e03ec212016ae7e2a77a56217",
      "blockNumber": "0x6720f1",
      "gasUsed": "0x2c63e",
      "effectiveGasPrice": "0x14b89f4bed",
      "from": "0x1b06535f608b58b863843e09fba62b8929513895",
      "to": "0x59e8edee31e8399c491dfafb04aa8dcae8b8d122",
      "contractAddress": null
    }
  ],
  "libraries": [],
  "pending": [],
  "returns": {},
  "timestamp": 1727290081,
  "chain": 11155111,
  "commit": "4fe5346"
}